:020000040000FA
:100000000C945D000C9485000C9485000C94850084
:100010000C9485000C9485000C9485000C9485004C
:100020000C9485000C9485000C9485000C9485003C
:100030000C9485000C9485000C9485000C9485002C
:100040000C94F3020C9485000C9485000C948500AC
:100050000C9485000C9485000C9485000C9485000C
:100060000C9485000C9485000000000024002700FB
:100070002A0000000000250028002B0004040404CE
:100080000404040402020202020203030303030342
:10009000010204081020408001020408102001021F
:1000A00004081020000000080002010000030407FB
:1000B0000000000000000000E70311241FBECFEF86
:1000C000D8E0DEBFCDBF11E0A0E0B1E0EAE1F8E0AA
:1000D00002C005900D92AE33B107D9F721E0AEE32F
:1000E000B1E001C01D92A136B207E1F710E0CDE505
:1000F000D0E004C02197FE010E940504CC35D10751
:10010000C9F70E943D030C940B040C940000AF92BD
:10011000BF92CF92DF92EF92FF920F931F93CF93F4
:10012000DF936C017B018B01040F151FEB015E0156
:10013000AE18BF08C017D10759F06991D601ED91EB
:10014000FC910190F081E02DC6010995892B79F78A
:10015000C501DF91CF911F910F91FF90EF90DF903C
:10016000CF90BF90AF90089590E0FC01EC55FF4F09
:100170002491FC01E057FF4F3491FC01E458FF4FFC
:10018000E491EE23C9F0222339F0233001F1A8F4E1
:10019000213019F1223029F1F0E0EE0FFF1FEE5867
:1001A000FF4FA591B4918FB7F894EC91611126C0DF
:1001B00030953E233C938FBF08952730A9F0283017
:1001C000C9F0243049F7809180008F7D03C0809171
:1001D00080008F7780938000DFCF84B58F7784BDD8
:1001E000DBCF84B58F7DFBCF8091B0008F7780937C
:1001F000B000D2CF8091B0008F7DF9CF3E2BDACF07
:10020000CF93DF9390E0FC01E057FF4F2491845897
:100210009F4FFC0184918823D1F090E0880F991FB3
:10022000FC01E859FF4FA591B491FC01EE58FF4F36
:10023000C591D49161110EC09FB7F8948C91E22FB3
:10024000E0958E238C932881E223E8839FBFDF9182
:10025000CF9108958FB7F894EC91E22BEC938FBF78
:10026000F6CF3FB7F8948091430190914401A0915B
:100270004501B091460126B5A89B05C02F3F19F056
:100280000196A11DB11D3FBFBA2FA92F982F882716
:10029000BC01CD01620F711D811D911D42E0660FF1
:1002A000771F881F991F4A95D1F708958F929F92C3
:1002B000AF92BF92CF92DF92EF92FF924B015C011F
:1002C0000E9431016B017C010E9431016C197D0992
:1002D0008E099F09683E734081059105A8F321E0CE
:1002E000821A9108A108B10888EEC80E83E0D81ED2
:1002F000E11CF11C81149104A104B10429F7FF90C1
:10030000EF90DF90CF90BF90AF909F908F90089527
:10031000089590E080E00895FC0101900020E9F745
:100320003197AF01481B590BBC0189E491E00C9453
:100330008700CF93DF93EC0160E08E810E94B400D0
:1003400061E08E810E94B40060E08E810E94B40062
:100350008BE891E00197F1F7DF91CF910895CF926B
:10036000DF92EF92FF920F931F93CF93DF936C0175
:100370007C0187E0E80EF11CD0E0C0E0062F10E021
:10038000B8010C2E02C0759567950A94E2F761706A
:10039000F70181917F010E94B4002196C430D105FC
:1003A00079F7C601DF91CF911F910F91FF90EF90E8
:1003B000DF90CF900C949901CF92DF92EF92FF9251
:1003C0000F931F93CF93DF93EC01F62E642F8C8154
:1003D0000E94B4008D818F3F19F060E00E94B4004C
:1003E0000F2D10E08F8584FF25C06E0187E0C80EB9
:1003F000D11CF12CE12CB8010E2C02C0759567952B
:100400000A94E2F76170F60181916F010E94B400D5
:10041000FFEFEF1AFF0A88E0E816F10461F7CE015A
:10042000DF91CF911F910F91FF90EF90DF90CF90D0
:100430000C949901B80184E0759567958A95E1F768
:10044000CE010E94AF016F2DCE01DF91CF911F91A0
:100450000F91FF90EF90DF90CF900C94AF0140E0B0
:10046000682F89E491E00C94DC0181E00E942F0266
:100470008BE39FE10197F1F70895CF93DF938230EB
:1004800029F49091580198609093580180935C01F1
:1004900010925D0180E480935E0180E180935F01B2
:1004A00080E58093600161E080914D010E94000130
:1004B00080914E018F3F19F061E00E94000161E0E0
:1004C00080914F010E940001C9E4D1E09E012954AE
:1004D00031408091580184FD0BC084E090E021966A
:1004E0002817390744F461E08E810E940001EECFA5
:1004F00088E090E0F4CF8BE39DE00197F1F760E0B6
:1005000080914D010E94B40060E080914F010E94F3
:10051000B40080914E018F3F19F060E00E94B4005A
:100520008091580184FD34C063E089E491E00E9429
:10053000AF01CBE4D6E4CE010197F1F763E089E4A3
:1005400091E00E94AF012197F1F763E089E491E027
:100550000E94AF0183E592E00197F1F762E089E440
:1005600091E00E94AF018091580180620E942F02A9
:1005700084E0809359018CE00E942F020E94350292
:1005800082E080935A0186E0DF91CF910C942F0294
:1005900080620E942F028BE496E40197F1F780912C
:1005A000580180620E942F0283E592E00197F1F7E3
:1005B0008091580180620E942F02D5CF90915C01FA
:1005C000691710F06FEF690FE62FF0E0E75BFE4F61
:1005D0009489890F80680C942F0241E00E94DC010D
:1005E00081E090E008951F920F920FB60F921124B0
:1005F0002F933F938F939F93AF93BF9380913F012E
:1006000090914001A0914101B091420130913E0191
:1006100023E0230F2D3758F50196A11DB11D20931E
:100620003E0180933F0190934001A0934101B0931C
:1006300042018091430190914401A0914501B09104
:1006400046010196A11DB11D809343019093440181
:10065000A0934501B0934601BF91AF919F918F91B7
:100660003F912F910F900FBE0F901F90189526E885
:10067000230F0296A11DB11DD2CF789484B582605C
:1006800084BD84B5816084BD85B5826085BD85B536
:10069000816085BD80916E00816080936E001092B4
:1006A000810080918100826080938100809181002F
:1006B00081608093810080918000816080938000C0
:1006C0008091B10084608093B1008091B00081601E
:1006D0008093B00080917A00846080937A0080914A
:1006E0007A00826080937A0080917A0081608093A2
:1006F0007A0080917A00806880937A001092C1001D
:1007000061E080E00E94000160E08EE00E94000154
:1007100082E00E943D020E94350260E080E00E947B
:10072000DE028CE091E00E948C0161E080E00E949A
:10073000DE0289E191E00E948C0164E670E080E0D5
:1007400090E00E9456010E94350210E480E0E82EFD
:1007500080E0F82E10937C0080917A008064809372
:100760007A0080917A0086FDFCCF80917800C0915C
:100770007900DC2FC82FD0934801C09347010E9415
:100780003502C536D105C4F061E080E00E94B400B6
:1007900061E085E00E94DE0288E291E00E948C0127
:1007A0006AE070E080E090E00E945601E114F104FC
:1007B00089F20E940000CECF60E080E00E94B40089
:1007C00061E085E00E94DE0283E391E0E7CFE9E4A7
:1007D000F1E01382128284E091E0918380838DE0C6
:1007E00084838FEF85838CE0868388E0878389E02C
:1007F00080878AE081878BE082871386148615863E
:100800001686178681E00C943D02EE0FFF1F0590BF
:10081000F491E02D0994F894FFCF00000000ED0260
:1008200087008901880150414E4B414A2053494E6F
:100830004748002020313930425443435345303239
:1008400034004C4544204F4E20202020004C45448D
:08085000204F66662020200005
:107E0000112484B714BE81FFF0D085E080938100F7
:107E100082E08093C00088E18093C10086E0809377
:107E2000C20080E18093C4008EE0C9D0259A86E02C
:107E300020E33CEF91E0309385002093840096BBD3
:107E4000B09BFECF1D9AA8958150A9F7CC24DD24C4
:107E500088248394B5E0AB2EA1E19A2EF3E0BF2EE7
:107E6000A2D0813461F49FD0082FAFD0023811F036
:107E7000013811F484E001C083E08DD089C08234E0
:107E800011F484E103C0853419F485E0A6D080C0E4
:107E9000853579F488D0E82EFF2485D0082F10E0AE
:107EA000102F00270E291F29000F111F8ED06801E7
:107EB0006FC0863521F484E090D080E0DECF843638
:107EC00009F040C070D06FD0082F6DD080E0C81688
:107ED00080E7D80618F4F601B7BEE895C0E0D1E017
:107EE00062D089930C17E1F7F0E0CF16F0E7DF06D8
:107EF00018F0F601B7BEE89568D007B600FCFDCFD4
:107F0000A601A0E0B1E02C9130E011968C91119780
:107F100090E0982F8827822B932B1296FA010C0160
:107F200087BEE89511244E5F5F4FF1E0A038BF0790
:107F300051F7F601A7BEE89507B600FCFDCF97BE46
:107F4000E89526C08437B1F42ED02DD0F82E2BD052
:107F50003CD0F601EF2C8F010F5F1F4F84911BD097
:107F6000EA94F801C1F70894C11CD11CFA94CF0C13
:107F7000D11C0EC0853739F428D08EE10CD085E9AC
:107F80000AD08FE07ACF813511F488E018D01DD067
:107F900080E101D065CF982F8091C00085FFFCCF94
:107FA0009093C60008958091C00087FFFCCF809118
:107FB000C00084FD01C0A8958091C6000895E0E648
:107FC000F0E098E1908380830895EDDF803219F02E
:107FD00088E0F5DFFFCF84E1DECF1F93182FE3DFCA
:107FE0001150E9F7F2DF1F91089580E0E8DFEE27F6
:047FF000FF270994CA
:027FFE00040479
:00000001FF
