:100000000C9463000C948B000C948B000C948B006C
:100010000C948B000C948B000C948B000C94DC02E1
:100020000C948B000C948B000C948B000C948B0024
:100030000C948B000C948B000C948B000C948B0014
:100040000C9490030C948B000C945E030C94380376
:100050000C948B000C948B000C948B000C948B00F4
:100060000C948B000C948B0000000008000201002F
:100070000003040700000000000000000000000072
:100080002300260029000200000000250028002B84
:100090000000000000240027002A000404040404D7
:1000A0000404040202020202020303030303030125
:1000B00002040810204080010204081020010204FC
:1000C000081020003C0611241FBECFEFD8E0DEBF91
:1000D000CDBF11E0A0E0B1E0EAEBF0E102C0059095
:1000E0000D92A032B107D9F721E0A0E2B1E001C042
:1000F0001D92AB3DB207E1F710E0C3E6D0E004C0CB
:100100002197FE010E945508C236D107C9F70E9407
:100110001F040C945B080C94000090E0FC01E15576
:10012000FF4F249185569F4FFC018491882399F0BD
:1001300090E0880F991FFC01EF56FF4FA591B491F5
:10014000FC01E957FF4F859194918FB7F894EC919A
:10015000E22BEC938FBF0895FC01538D448D252F26
:1001600030E0842F90E0821B930B541710F0CF9651
:10017000089501970895FC01918D828D981761F083
:10018000A28DAE0FBF2FB11D5D968C91928D9F5F9A
:100190009F73928F90E008958FEF9FEF0895FC0179
:1001A000918D828D981731F0828DE80FF11D858D2C
:1001B00090E008958FEF9FEF0895FC01918D228DBF
:1001C000892F90E0805C9F4F821B91098F73992744
:1001D0000895FC01A48DA80FB92FB11DA35ABF4FDC
:1001E0002C91848D90E001968F739927848FA68936
:1001F000B7892C93A089B1898C91837080648C938A
:10020000938D848D981306C00288F389E02D808138
:100210008F7D80830895EF92FF920F931F93CF936A
:10022000DF93EC0181E0888F9B8D8C8D98131AC031
:10023000E889F989808185FF15C09FB7F894EE8918
:10024000FF896083E889F989808183708064808375
:100250009FBF81E090E0DF91CF911F910F91FF90C0
:10026000EF900895F62E0B8D10E00F5F1F4F0F7368
:100270001127E02E8C8D8E110CC00FB607FCFACF23
:10028000E889F989808185FFF5CFCE010E94E900D8
:10029000F1CFEB8DEC0FFD2FF11DE35AFF4FF082F4
:1002A0009FB7F8940B8FEA89FB8980818062CFCF5A
:1002B000CF93DF93EC01888D8823B9F0AA89BB899D
:1002C000E889F9898C9185FD03C0808186FD0DC088
:1002D0000FB607FCF7CF8C9185FFF2CF808185FFA9
:1002E000EDCFCE010E94E900E9CFDF91CF910895D3
:1002F0008EE391E00E94DD0021E0892B09F420E0EB
:10030000822F089580E090E0892B29F00E947801E7
:1003100081110C9400000895AF92BF92CF92DF92AA
:10032000EF92FF920F931F93CF93DF936C017B01AA
:100330008B01040F151FEB015E01AE18BF08C0173B
:10034000D10759F06991D601ED91FC910190F081AE
:10035000E02DC6010995892B79F7C501DF91CF9171
:100360001F910F91FF90EF90DF90CF90BF90AF90D3
:10037000089590E0FC01E859FF4F2491FC01E155FC
:10038000FF4F3491FC01E556FF4FE491EE23C9F095
:10039000222339F0233001F1A8F4213019F1223061
:1003A00029F1F0E0EE0FFF1FE957FF4FA591B4913F
:1003B0008FB7F894EC91611126C030953E233C93A1
:1003C0008FBF08952730A9F02830C9F0243049F7AD
:1003D000809180008F7D03C0809180008F77809313
:1003E0008000DFCF84B58F7784BDDBCF84B58F7D70
:1003F000FBCF8091B0008F778093B000D2CF8091F7
:10040000B0008F7DF9CF3E2BDACF90910001891398
:100410000BC0E6E8F0E0E4919FEF90930001E1303B
:1004200049F028F0E23061F060E00C94B9011092DC
:100430006E00FACF90916F009D7F90936F00F4CF84
:10044000909170009D7F9093700091E09093B00028
:100450009091B100987F94609093B1001092B30096
:10046000E3CF3FB7F8948091250190912601A091A8
:100470002701B091280126B5A89B05C02F3F19F090
:100480000196A11DB11D3FBFBA2FA92F982F882714
:10049000BC01CD01620F711D811D911D42E0660FEF
:1004A000771F881F991F4A95D1F708958F929F92C1
:1004B000AF92BF92CF92DF92EF92FF920E943102F1
:1004C0004B015C0184E6C82ED12CE12CF12C0E945A
:1004D0003102681979098A099B09683E73408105D0
:1004E0009105A8F321E0C21AD108E108F10888EECD
:1004F000880E83E0981EA11CB11CC114D104E10434
:10050000F10429F7FF90EF90DF90CF90BF90AF906C
:100510009F908F900895FC0101900020E9F731979A
:10052000AF01481B590BBC018EE391E00C948C0188
:100530008F929F92AF92BF920F931F93CF93DF93AF
:10054000CDB7DEB7A1970FB6F894DEBF0FBECDBF13
:1005500019A2423008F44AE08E010F5D1F4F842E2D
:10056000912CB12CA12CA50194010E943308E62FF7
:10057000B901CA01EA30F4F4E05DD801EE938D01CF
:10058000232B242B252B79F790E080E0109719F08E
:10059000CD010E948B02A1960FB6F894DEBF0FBE6C
:1005A000CDBFDF91CF911F910F91BF90AF909F90E2
:1005B0008F900895E95CE1CF1F920F920FB60F92D2
:1005C00011242F933F934F935F936F937F938F9358
:1005D0009F93AF93BF93EF93FF9380912E019091E0
:1005E0002F01A0913001B0913101892B8A2B8B2BE7
:1005F000D1F190912901E0912A01F0912B018081A4
:100600008927808380912E0190912F01A091300144
:10061000B0913101181619061A061B069CF4809138
:100620002E0190912F01A0913001B09131010197DD
:10063000A109B10980932E0190932F01A09330015D
:10064000B0933101FF91EF91BF91AF919F918F9145
:100650007F916F915F914F913F912F910F900FBEBE
:100660000F901F901895809100010E940502EACF1B
:100670001F920F920FB60F9211242F933F934F9317
:100680005F936F937F938F939F93AF93BF93EF93FA
:10069000FF938EE391E00E94E900FF91EF91BF91FB
:1006A000AF919F918F917F916F915F914F913F910A
:1006B0002F910F900FBE0F901F9018951F920F92C1
:1006C0000FB60F9211242F938F939F93EF93FF9365
:1006D000E0914E01F0914F018081E0915401F09141
:1006E000550182FD1BC09081809157018F5F8F73F0
:1006F00020915801821741F0E0915701F0E0E25C4F
:10070000FE4F958F80935701FF91EF919F918F91AD
:100710002F910F900FBE0F901F9018958081F4CFEE
:100720001F920F920FB60F9211242F933F938F9326
:100730009F93AF93BF938091210190912201A0914B
:100740002301B09124013091200123E0230F2D37A4
:1007500058F50196A11DB11D209320018093210120
:1007600090932201A0932301B0932401809125014D
:1007700090912601A0912701B09128010196A11D19
:10078000B11D8093250190932601A0932701B0937A
:100790002801BF91AF919F918F913F912F910F9021
:1007A0000FBE0F901F90189526E8230F0296A11DEB
:1007B000B11DD2CFCF92DF92EF92FF920F931F9392
:1007C000E82FF92F05C0015011092109310961F104
:1007D000908196239417B9F305C00150110921099E
:1007E000310911F1908196239413F7CFC12CD12CAC
:1007F000E12CF12C0AC08FEFC81AD80AE80AF80ACF
:100800000C151D052E053F0579F080818623841780
:1008100091F36C2D7D2D8E2D9F2D1F910F91FF90AB
:10082000EF90DF90CF90089560E070E080E090E07E
:100830001F910F91FF90EF90DF90CF9008957894E3
:1008400084B5826084BD84B5816084BD85B58260D5
:1008500085BD85B5816085BD80916E008160809386
:100860006E001092810080918100826080938100EF
:1008700080918100816080938100809180008160FF
:10088000809380008091B10084608093B10080915A
:10089000B00081608093B00080917A008460809382
:1008A0007A0080917A00826080937A0080917A0049
:1008B000816080937A0080917A00806880937A00CA
:1008C0001092C10080E00E948D0081E00E948D00A6
:1008D0004AE060E875E280E090E00E94980240EA19
:1008E000242E40E0342EC4EBD0E05DE0852E912C28
:1008F000A12CB12C61E082E00E94B9010E94560255
:1009000060E082E00E94B901E2EBF0E06491EEE980
:10091000F0E08491E82FF0E0EE0FFF1FE458FF4F66
:100920008591949108EE13E020E030E0462F0E947C
:10093000DA03611571058105910529F06F5F7F4F1D
:100940008F4F9F4F9F700E940A0722EB3DE94FEAAD
:100950005EE30E94C1076B017C01C0923A01D09214
:100960003B01E0923C01F0923D01AC019B010E94F1
:100970002E08882381F183E191E00E948B0220E020
:1009800030E040E05FE360913A0170913B0180917B
:100990003C0190913D010E94BC0718160CF066C105
:1009A00080910001853009F092C0E6E8F0E01491F2
:1009B00017FD2AC185E00E948D00112309F4F5C0BE
:1009C000123009F006C18091B100887F8460809365
:1009D000B1008AEB3BC12FEF3FEF4FE75FE7C70165
:1009E000B6010E942E0881110DC02FEF3FEF4FE797
:1009F0005FE7C701B6010E94D60618161CF487E10E
:100A000091E0BBCF2FEF3FEF4FE75FE4C701B601A7
:100A10000E94BC0718161CF48BE191E0AECF2FEFBB
:100A20003FEF4FE75FECC701B6010E94D60687FD96
:100A3000F3CF2AE037ED43EA5BE3C701B6010E943A
:100A40006A062B013C010E94DB066B017C010E94BF
:100A50000A079B01AC01C301B2010E9469062B0188
:100A60003C014AE0C701B6010E9498026EE28EE3A3
:100A700091E00E940B0120E030E040E251E4C3012C
:100A8000B2010E94C1072B013C010E94DB066B01F1
:100A9000F12CE12C4AE0C701B6010E949802C7017F
:100AA000B6010E940A079B01AC01C301B2010E947A
:100AB000690620E030E040E251E40E94C1070E9454
:100AC000DB0690E080E04AE00E94980258CF8F3F1A
:100AD00009F09AC085E080930001E6E8F0E0149107
:100AE0001F3F09F491C0113011F148F0123009F4A0
:100AF0003BC017FD89C085E00E948D0061CF14BC0A
:100B000015BC84B5826084BD85B5816085BDF10169
:100B10008491E82FF0E0EE0FFF1FE957FF4F85911A
:100B20009491FE01849180932D0110E043CF1092A7
:100B30008000109281008091810088608093810004
:100B400080918100816080938100F1018491E82F80
:100B5000F0E0EE0FFF1FE957FF4F85919491FE01E2
:100B6000849180932C0126CF1092B0001092B10096
:100B70008091B00082608093B0008091B10081606C
:100B80008093B100F1018491E82FF0E0EE0FFF1F98
:100B9000E957FF4F8591949190932B0180932A01FF
:100BA000FE0184918093290105CF85B5887F8360FC
:100BB00085BD8AEB87BD8092360190923701A09265
:100BC0003801B092390180916E00826080936E008E
:100BD0001BC01130A1F580918100887F81608093D6
:100BE00081008BEE9EE29093890080938800809232
:100BF000320190923301A0923401B092350180917C
:100C00006F00826080936F0061E08DE00E94B90107
:100C100061E080E00E94B9010E94560260E080E03D
:100C20000E94B901E0E0F0E0EF2B09F463CE0E94EE
:100C30007801882309F45ECE0E9400005BCE12305A
:100C400021F01111E1CF8BEEB5CF8BEE8093B30085
:100C500080922E0190922F01A0923001B09231012A
:100C600080917000826080937000CECF85E00E94FA
:100C7000050260E08DE0D4CFEEE3F1E01382128252
:100C800088EE93E0A0E0B0E084839583A683B783E9
:100C900085E091E09183808385EC90E0958784875F
:100CA00084EC90E09787868780EC90E0918B808B36
:100CB00081EC90E0938B828B82EC90E0958B848B1F
:100CC00086EC90E0978B868B118E128E138E148E8D
:100CD00008955058BB27AA270E9481060C948207CA
:100CE0000E94740738F00E947B0720F039F49F3F80
:100CF00019F426F40C9471070EF4E095E7FB0C94BC
:100D00006B07E92F0E94930758F3BA17620773071E
:100D10008407950720F079F4A6F50C94B5070EF436
:100D2000E0950B2EBA2FA02D0B01B90190010C01FB
:100D3000CA01A0011124FF27591B99F0593F50F413
:100D4000503E68F11A16F040A22F232F342F44276B
:100D5000585FF3CF469537952795A795F040539563
:100D6000C9F77EF41F16BA0B620B730B840BBAF033
:100D70009150A1F0FF0FBB1F661F771F881FC2F79E
:100D80000EC0BA0F621F731F841F48F487957795B2
:100D90006795B795F7959E3F08F0B0CF9395880F6C
:100DA00008F09927EE0F9795879508950E944707B9
:100DB00008F481E008950E949B0788F09F5798F0FF
:100DC000B92F9927B751B0F0E1F0660F771F881F50
:100DD000991F1AF0BA95C9F714C0B13091F00E946A
:100DE000B507B1E008950C94B507672F782F8827D1
:100DF000B85F39F0B93FCCF3869577956795B39591
:100E0000D9F73EF490958095709561957F4F8F4FFF
:100E10009F4F0895E89409C097FB3EF49095809504
:100E2000709561957F4F8F4F9F4F9923A9F0F92FB0
:100E300096E9BB279395F695879577956795B7952E
:100E4000F111F8CFFAF4BB0F11F460FF1BC06F5F14
:100E50007F4F8F4F9F4F16C0882311F096E911C026
:100E6000772321F09EE8872F762F05C0662371F047
:100E700096E8862F70E060E02AF09A95660F771F5B
:100E8000881FDAF7880F9695879597F90895990F37
:100E90000008550FAA0BE0E8FEEF16161706E80744
:100EA000F907C0F012161306E407F50798F0621B65
:100EB000730B840B950B39F40A2661F0232B242B3A
:100EC000252B21F408950A2609F4A140A6958FEF59
:100ED000811D811D089597F99F6780E870E060E0AB
:100EE00008959FEF80EC089500240A9416161706C3
:100EF00018060906089500240A941216130614060B
:100F000005060895092E0394000C11F4882352F06D
:100F1000BB0F40F4BF2B11F460FF04C06F5F7F4F25
:100F20008F4F9F4F089557FD9058440F551F59F00C
:100F30005F3F71F04795880F97FB991F61F09F3FC6
:100F400079F087950895121613061406551FF2CFEF
:100F50004695F1DF08C0161617061806991FF1CF3F
:100F600086957105610508940895E894BB27662766
:100F70007727CB0197F908950E94470708F48FEF70
:100F800008950E94D4070C9482070E94740738F0D9
:100F90000E947B0720F0952311F00C946B070C94B2
:100FA000710711240C94B6070E94930770F3959F64
:100FB000C1F3950F50E0551F629FF001729FBB2750
:100FC000F00DB11D639FAA27F00DB11DAA1F649FEC
:100FD0006627B00DA11D661F829F2227B00DA11D9F
:100FE000621F739FB00DA11D621F839FA00D611D25
:100FF000221F749F3327A00D611D231F849F600D46
:10100000211D822F762F6A2F11249F5750409AF06E
:10101000F1F088234AF0EE0FFF1FBB1F661F771FFA
:10102000881F91505040A9F79E3F510580F00C94C5
:101030006B070C94B6075F3FE4F3983ED4F38695B4
:1010400077956795B795F795E7959F5FC1F7FE2B65
:10105000880F911D9695879597F908950E944707E7
:10106000880B990B0895A1E21A2EAA1BBB1BFD0148
:101070000DC0AA1FBB1FEE1FFF1FA217B307E40777
:10108000F50720F0A21BB30BE40BF50B661F771FCF
:10109000881F991F1A9469F76095709580959095AF
:1010A0009B01AC01BD01CF010895EE0FFF1F05901C
:0A10B000F491E02D0994F894FFCFAD
:1010BA00FF000000000B018C01AC005801DD00BBF1
:1010CA0000CF006E616E00696E66006F7666000082
:00000001FF
