:100000000C945D000C9485000C9485000C94850084
:100010000C9485000C9485000C9485000C9485004C
:100020000C9485000C9485000C9485000C9485003C
:100030000C9485000C9485000C9485000C9485002C
:100040000C94DF020C9485000C9485000C948500C0
:100050000C9485000C9485000C9485000C9485000C
:100060000C9485000C94850000000008000201003B
:100070000003040700000000000000000000000072
:10008000250028002B0000000000240027002A0083
:10009000040404040404040402020202020203032E
:1000A0000303030301020408102040800102040836
:1000B0001020010204081020D20311241FBECFEF2C
:1000C000D8E0DEBFCDBF11E0A0E0B1E0ECEEF7E09C
:1000D00002C005900D92AA35B107D9F721E0AAE533
:1000E000B1E001C01D92AB37B207E1F710E0CDE5FA
:1000F000D0E004C02197FE010E94EE03CC35D10769
:10010000C9F70E9429030C94F4030C94000090E0BA
:10011000FC01EC55FF4F249180579F4FFC018491C7
:10012000882399F090E0880F991FFC01EA57FF4F50
:10013000A591B491FC01E458FF4F859194918FB73C
:10014000F894EC91E22BEC938FBF0895AF92BF929D
:10015000CF92DF92EF92FF920F931F93CF93DF9393
:100160006C017B018B01040F151FEB015E01AE18C2
:10017000BF08C017D10759F06991D601ED91FC91E4
:100180000190F081E02DC6010995892B79F7C50111
:10019000DF91CF911F910F91FF90EF90DF90CF9063
:1001A000BF90AF90089590E0FC01E859FF4F249173
:1001B000FC01EC55FF4F3491FC01E057FF4FE491F7
:1001C000EE23C9F0222339F0233001F1A8F42130C5
:1001D00019F1223029F1F0E0EE0FFF1FE458FF4F34
:1001E000A591B4918FB7F894EC91611126C0309528
:1001F0003E233C938FBF08952730A9F02830C9F0E3
:10020000243049F7809180008F7D03C08091800069
:100210008F7780938000DFCF84B58F7784BDDBCF6D
:1002200084B58F7DFBCF8091B0008F778093B00035
:10023000D2CF8091B0008F7DF9CF3E2BDACF3FB780
:10024000F89480915F0190916001A0916101B0915B
:10025000620126B5A89B05C02F3F19F00196A11D8C
:10026000B11D3FBFBA2FA92F982F8827BC01CD0100
:10027000620F711D811D911D42E0660F771F881F5F
:10028000991F4A95D1F708958F929F92AF92BF928E
:10029000CF92DF92EF92FF920E941F014B015C010F
:1002A00084E6C82ED12CE12CF12C0E941F01681984
:1002B00079098A099B09683E734081059105A8F375
:1002C00021E0C21AD108E108F10888EE880E83E027
:1002D000981EA11CB11CC114D104E104F10429F73A
:1002E000FF90EF90DF90CF90BF90AF909F908F9056
:1002F0000895089590E080E00895FC0101900020A9
:10030000E9F73197AF01481B590BBC0183E691E037
:100310000C94A600CF93DF93EC0160E08E810E94E5
:10032000D30061E08E810E94D30060E08E810E9444
:10033000D3008BE891E00197F1F7DF91CF91089519
:10034000CF92DF92EF92FF920F931F93CF93DF93A1
:100350006C017C0187E0E80EF11CD0E0C0E0062FC4
:1003600010E0B8010C2E02C0759567950A94E2F76B
:100370006170F70181917F010E94D3002196C43002
:10038000D10579F7C601DF91CF911F910F91FF90B1
:10039000EF90DF90CF900C948A01CF92DF92EF9292
:1003A000FF920F931F93CF93DF93EC01F62E642FF0
:1003B0008C810E94D3008D818F3F19F060E00E94F4
:1003C000D3000F2D10E08F8584FF25C06E0187E0DC
:1003D000C80ED11CF12CE12CB8010E2C02C0759571
:1003E00067950A94E2F76170F60181916F010E94AE
:1003F000D300FFEFEF1AFF0A88E0E816F10461F777
:10040000CE01DF91CF911F910F91FF90EF90DF9080
:10041000CF900C948A01B80184E0759567958A9510
:10042000E1F7CE010E94A0016F2DCE01DF91CF91A7
:100430001F910F91FF90EF90DF90CF900C94A0014F
:1004400040E0682F83E691E00C94CD0181E00E94AA
:1004500020028BE39FE10197F1F70895CF93DF939B
:10046000823029F490917201986090937201809388
:1004700076011092770180E48093780180E1809387
:10048000790180E580937A01809167010E9487005D
:10049000809168018F3F11F00E948700809169016F
:1004A0000E948700C3E6D1E09E012356314080912F
:1004B000720184FD0AC084E090E021962817390774
:1004C0003CF48E810E948700EFCF88E090E0F5CF6A
:1004D0008BE39DE00197F1F760E0809167010E9456
:1004E000D30060E0809169010E94D300809168018F
:1004F0008F3F19F060E00E94D3008091720184FD6B
:1005000034C063E083E691E00E94A001CBE4D6E42E
:10051000CE010197F1F763E083E691E00E94A0012C
:100520002197F1F763E083E691E00E94A00183E563
:1005300092E00197F1F762E083E691E00E94A0016A
:100540008091720180620E94200284E08093730196
:100550008CE00E9420020E94260282E080937401B7
:1005600086E0DF91CF910C94200280620E942002ED
:100570008BE496E40197F1F78091720180620E940A
:10058000200283E592E00197F1F780917201806289
:100590000E942002D5CF90917601891710F08FEF3D
:1005A000890FE82FF0E0ED59FE4F848980680C94A4
:1005B000200241E00E94CD0181E090E008951F9269
:1005C0000F920FB60F9211242F933F938F939F9307
:1005D000AF93BF9380915B0190915C01A0915D010D
:1005E000B0915E0130915A0123E0230F2D3758F569
:1005F0000196A11DB11D20935A0180935B01909338
:100600005C01A0935D01B0935E0180915F019091C8
:100610006001A0916101B09162010196A11DB11D1F
:1006200080935F0190936001A0936101B093620198
:10063000BF91AF919F918F913F912F910F900FBEDE
:100640000F901F90189526E8230F0296A11DB11D4B
:10065000D2CF789484B5826084BD84B5816084BD36
:1006600085B5826085BD85B5816085BD80916E0050
:10067000816080936E001092810080918100826081
:1006800080938100809181008160809381008091BE
:1006900080008160809380008091B10084608093AD
:1006A000B1008091B00081608093B00080917A00A9
:1006B000846080937A0080917A00826080937A00CF
:1006C00080917A00816080937A0080917A008068BE
:1006D00080937A001092C1008AE00E94870088E02F
:1006E0000E94870089E00E94870082E00E942E021B
:1006F0000E94260280E00E94CB028CE091E00E94E2
:100700007D0181E00E94CB0289E191E00E947D01A0
:100710000E9444010E942602C0E0D0E080E00E94D6
:10072000CB0288E291E00E947D0181E00E94CB0231
:1007300089E391E00E947D0161E08AE00E94D3009C
:1007400060E088E00E94D30060E089E00E94D3006E
:100750000E94440181E00E94CB0281E591E00E9469
:100760007D0160E08AE00E94D30061E088E00E94A1
:10077000D3000E94440181E00E94CB028AE491E010
:100780000E947D0160E088E00E94D30061E089E082
:100790000E94D3000E944401209709F4BFCF0E9419
:1007A0000000BCCFE3E6F1E01382128284E091E026
:1007B0009183808385E084838FEF858384E08683C3
:1007C00083E0878382E0808781E0818712861386B9
:1007D00014861586168617860C942E02EE0FFF1FC0
:0C07E0000590F491E02D0994F894FFCFEF
:1007EC0000000000D902A6007A01790150414E4B5D
:1007FC00414A2053494E4748002020313930425459
:10080C00434353453032340052454420475245450A
:10081C004E2059454C4C4F57004F4E202020202045
:10082C0020202020202020202000202020202020DC
:0A083C002020202020204F4E000055
:00000001FF
