:020000040000FA
:100000000C9462000C948A000C948A000C948A0070
:100010000C948A000C948A000C948A000C948A0038
:100020000C948A000C948A000C948A000C948A0028
:100030000C948A000C948A000C948A000C948A0018
:100040000C9417040C948A000C948A000C948A0077
:100050000C948A000C948A000C948A000C948A00F8
:100060000C948A000C948A000000000024002700F1
:100070002A0000000000250028002B0000000008D6
:10008000000201000003040700000000000000005F
:1000900000000000230026002900040404040404D6
:1000A0000404020202020202030303030303010227
:1000B00004081020408001020408102001020408F6
:1000C0001020A70511241FBECFEFD8E0DEBFCDBFA3
:1000D00011E0A0E0B1E0E0E6F0E102C005900D9291
:1000E000AE33B107D9F721E0AEE3B1E001C01D9214
:1000F000A336B207E1F710E0C2E6D0E004C02197D2
:10010000FE010E942808C136D107C9F70E94A60443
:100110000C942E080C940000AF92BF92CF92DF9205
:10012000EF92FF920F931F93CF93DF936C017B01AC
:100130008B01040F151FEB015E01AE18BF08C0173D
:10014000D10759F06991D601ED91FC910190F081B0
:10015000E02DC6010995892B79F7C501DF91CF9173
:100160001F910F91FF90EF90DF90CF90BF90AF90D5
:10017000089590E0FC01E458FF4F2491FC01E25502
:10018000FF4F3491FC01E656FF4FE491EE23C9F096
:10019000222339F0233001F1A8F4213019F1223063
:1001A00029F1F0E0EE0FFF1FEE58FF4FA591B4913B
:1001B0008FB7F894EC91611126C030953E233C93A3
:1001C0008FBF08952730A9F02830C9F0243049F7AF
:1001D000809180008F7D03C0809180008F77809315
:1001E0008000DFCF84B58F7784BDDBCF84B58F7D72
:1001F000FBCF8091B0008F778093B000D2CF8091F9
:10020000B0008F7DF9CF3E2BDACFCF93DF9390E014
:10021000FC01E255FF4F249186569F4FFC018491CB
:100220008823D1F090E0880F991FFC01E859FF4F17
:10023000A591B491FC01EE58FF4FC591D491611185
:100240000EC09FB7F8948C91E22FE0958E238C938B
:100250002881E223E8839FBFDF91CF9108958FB774
:10026000F894EC91E22BEC938FBFF6CF3FB7F89464
:100270008091430190914401A0914501B0914601C4
:1002800026B5A89B05C02F3F19F00196A11DB11DF1
:100290003FBFBA2FA92F982F8827BC01CD01620F2D
:1002A000711D811D911D42E0660F771F881F991FE8
:1002B0004A95D1F708958F929F92AF92BF92CF92B5
:1002C000DF92EF92FF924B015C010E9436016B01BD
:1002D0007C010E9436016C197D098E099F09683ED8
:1002E000734081059105A8F321E0821A9108A108C5
:1002F000B10888EEC80E83E0D81EE11CF11C811401
:100300009104A104B10429F7FF90EF90DF90CF9002
:10031000BF90AF909F908F900895089590E080E0F7
:100320000895FC0101900020E9F73197AF01481BC7
:10033000590BBC018BE491E00C948C008F929F923E
:10034000AF92BF920F931F93CF93DF93CDB7DEB7DA
:10035000A1970FB6F894DEBF0FBECDBF19A24230F1
:1003600008F44AE08E010F5D1F4F842E912CB12CB2
:10037000A12CA50194010E940608E62FB901CA012B
:10038000EA30F4F4E05DD801EE938D01232B242BA9
:10039000252B79F790E080E0109719F0CD010E94AD
:1003A0009101A1960FB6F894DEBF0FBECDBFDF91CD
:1003B000CF911F910F91BF90AF909F908F90089514
:1003C000E95CE1CFCF93DF93EC0160E08E810E9486
:1003D000B90061E08E810E94B90060E08E810E94C8
:1003E000B9008BE891E00197F1F7DF91CF91089583
:1003F000CF92DF92EF92FF920F931F93CF93DF93F1
:100400006C017C0187E0E80EF11CD0E0C0E0062F13
:1004100010E0B8010C2E02C0759567950A94E2F7BA
:100420006170F70181917F010E94B9002196C4306B
:10043000D10579F7C601DF91CF911F910F91FF9000
:10044000EF90DF90CF900C94E201CF92DF92EF9289
:10045000FF920F931F93CF93DF93EC01F62E642F3F
:100460008C810E94B9008D818F3F19F060E00E945D
:10047000B9000F2D10E08F8584FF25C06E0187E045
:10048000C80ED11CF12CE12CB8010E2C02C07595C0
:1004900067950A94E2F76170F60181916F010E94FD
:1004A000B900FFEFEF1AFF0A88E0E816F10461F7E0
:1004B000CE01DF91CF911F910F91FF90EF90DF90D0
:1004C000CF900C94E201B80184E0759567958A9508
:1004D000E1F7CE010E94F8016F2DCE01DF91CF919F
:1004E0001F910F91FF90EF90DF90CF900C94F80147
:1004F00040E0682F8BE491E00C942502CF93DF93CA
:10050000823029F490915A01986090935A01809317
:100510005E0110925F0180E48093600180E180932E
:10052000610180E58093620161E080914F010E944A
:100530000501809150018F3F19F061E00E94050193
:1005400061E0809151010E940501CBE4D1E09E0160
:100550002B54314080915A0184FD0BC084E090E01F
:1005600021962817390744F461E08E810E94050125
:10057000EECF88E090E0F4CF8BE39DE00197F1F7B8
:1005800060E080914F010E94B90060E080915101CC
:100590000E94B900809150018F3F19F060E00E94E5
:1005A000B90080915A0184FD39C063E08BE491E089
:1005B0000E94F801CBE4D6E4CE010197F1F763E0A5
:1005C0008BE491E00E94F8012197F1F763E08BE45E
:1005D00091E00E94F80183E592E00197F1F762E073
:1005E0008BE491E00E94F80180915A0180620E94A0
:1005F000780284E080935B018CE00E94780281E0C5
:100600000E9478028BE39FE10197F1F782E08093EB
:100610005C0186E0DF91CF910C94780280620E94A9
:1006200078028BE496E40197F1F780915A01806299
:100630000E94780283E592E00197F1F780915A01D8
:1006400080620E947802D0CF90915E01691710F00D
:100650006FEF690FE62FF0E0E55BFE4F9489890F9D
:1006600080680C94780241E00E94250281E090E0CD
:1006700008954F925F926F927F928F929F92AF9266
:10068000BF92CF92DF92EF92FF920F931F93CF937F
:100690006B017C01742EAC019B010E940108882330
:1006A00099F08CE091E0CF911F910F91FF90EF9026
:1006B000DF90CF90BF90AF909F908F907F906F9082
:1006C0005F904F900C94910146015701E894B7F860
:1006D0002FEF3FEF4FE75FE7C501B4010E9401082C
:1006E00081110DC02FEF3FEF4FE75FE7C501B40168
:1006F0000E94300618161CF480E191E0D4CF2FEF51
:100700003FEF4FE75FE4C701B6010E948F0718165D
:100710001CF484E191E0C7CF2FEF3FEF4FE75FEC90
:10072000C701B6010E94300687FDF3CF20E030E01C
:10073000A901C701B6010E94300610E000E087FF62
:100740000CC041E06DE28BE491E00E942502F7FAD3
:10075000F094F7F8F09401E010E0C0E060E070E0A1
:1007600080E09FE37C1641F020E030E040E251E47D
:100770000E943506CF5FF6CFA70196010E94C405FF
:100780004B015C010E94AE062B013C014AE00E9435
:100790009E01080F191FCC23C9F1C301B2010E94A9
:1007A000DD069B01AC01C501B4010E94C3054B01EC
:1007B0005C0141E06EE28BE491E00E9425020F5F54
:1007C0001F4FC15018F120E030E040E251E4C50174
:1007D000B4010E9494072B013C010E94AE064B011C
:1007E000B12CA12C4AE0C501B4010E949E01080F62
:1007F000191FC501B4010E94DD069B01AC01C301B4
:10080000B2010E94C3054B015C01DBCFC801CF914F
:100810001F910F91FF90EF90DF90CF90BF90AF901E
:100820009F908F907F906F905F904F9008951F9250
:100830000F920FB60F9211242F933F938F939F9394
:10084000AF93BF9380913F0190914001A0914101EE
:10085000B091420130913E0123E0230F2D3758F52E
:100860000196A11DB11D20933E0180933F019093FD
:100870004001A0934101B0934201809143019091C6
:100880004401A0914501B09146010196A11DB11D01
:100890008093430190934401A0934501B093460196
:1008A000BF91AF919F918F913F912F910F900FBE6C
:1008B0000F901F90189526E8230F0296A11DB11DD9
:1008C000D2CFCF92DF92EF92FF920F931F93E82F38
:1008D000F92F05C0015011092109310961F19081F9
:1008E00096239417B9F305C0015011092109310964
:1008F00011F1908196239413F7CFC12CD12CE12CC8
:10090000F12C0AC08FEFC81AD80AE80AF80A0C15A9
:100910001D052E053F0579F080818623841791F30C
:100920006C2D7D2D8E2D9F2D1F910F91FF90EF909F
:10093000DF90CF90089560E070E080E090E01F913C
:100940000F91FF90EF90DF90CF900895789484B549
:10095000826084BD84B5816084BD85B5826085BDBB
:1009600085B5816085BD80916E00816080936E0049
:10097000109281008091810082608093810080913B
:1009800081008160809381008091800081608093EC
:1009900080008091B10084608093B1008091B000AC
:1009A00081608093B00080917A00846080937A00A7
:1009B00080917A00826080937A0080917A008160D1
:1009C00080937A0080917A00806880937A001092F8
:1009D000C10061E08BE00E94050161E088E00E94B7
:1009E000050161E089E00E94050160E08AE00E9463
:1009F000050182E00E947E0260E080E00E94240304
:100A000088E191E00E94910161E083E00E9424036B
:100A100085E291E00E94910164E670E080E090E060
:100A20000E945B0181E00E9478028BE39FE10197C5
:100A3000F1F7C8EBD0E094EAE92E90E0F92E20E03F
:100A4000C22E20E0D22E61E089E00E94B9006AE067
:100A500070E080E090E00E945B0160E089E00E942D
:100A6000B900FE016491F7018491E82FF0E0EE0FE8
:100A7000FF1FE057FF4F8591949100E117E220E0BE
:100A800030E0462F0E9461046115710581059105D2
:100A900029F06F5F7F4F8F4F9F4F9F700E94DD0641
:100AA0004B015C018092470190924801A09249015C
:100AB000B0924A0161E081E00E94240342E0C50156
:100AC000B4010E94390322EB3DE94FEA5EE36091F5
:100AD0004701709148018091490190914A010E941B
:100AE0009407609347017093480180934901909364
:100AF0004A010E94A7066B30710514F560E088E09A
:100B00000E94B90061E08BE00E94B90060E080E0E3
:100B10000E94240382E391E00E94910160914701C9
:100B2000709148018091490190914A0142E00E94F0
:100B30003903C114D10409F486CF0E94000083CF89
:100B400060E08BE00E94B90061E088E0DDCFEBE47B
:100B5000F1E01382128284E091E09183808385E04A
:100B600084838FEF858384E0868383E0878382E0BC
:100B7000808781E081871286138614861586168603
:100B800017860C947E025058BB27AA270E94DB05CB
:100B90000C9455070E94470738F00E944E0720F03A
:100BA00039F49F3F19F426F40C9444070EF4E095B1
:100BB000E7FB0C943E07E92F0E94660758F3BA172B
:100BC000620773078407950720F079F4A6F50C9463
:100BD00088070EF4E0950B2EBA2FA02D0B01B9015A
:100BE00090010C01CA01A0011124FF27591B99F0A3
:100BF000593F50F4503E68F11A16F040A22F232FAF
:100C0000342F4427585FF3CF469537952795A795FE
:100C1000F0405395C9F77EF41F16BA0B620B730BA5
:100C2000840BBAF09150A1F0FF0FBB1F661F771F16
:100C3000881FC2F70EC0BA0F621F731F841F48F4CB
:100C4000879577956795B795F7959E3F08F0B0CF54
:100C50009395880F08F09927EE0F9795879508953B
:100C60000E941A0708F481E008950E9449060C9436
:100C700055070E944E0758F00E94470740F029F49C
:100C80005F3F29F00C943E0751110C9489070C9496
:100C900044070E94660768F39923B1F3552391F343
:100CA000951B550BBB27AA2762177307840738F0DB
:100CB0009F5F5F4F220F331F441FAA1FA9F335D038
:100CC0000E2E3AF0E0E832D091505040E695001CEC
:100CD000CAF72BD0FE2F29D0660F771F881FBB1FA6
:100CE000261737074807AB07B0E809F0BB0B802D84
:100CF000BF01FF2793585F4F3AF09E3F510578F0B0
:100D00000C943E070C9489075F3FE4F3983ED4F3BC
:100D1000869577956795B795F7959F5FC9F7880F83
:100D2000911D9695879597F90895E1E0660F771FD5
:100D3000881FBB1F621773078407BA0720F0621B66
:100D4000730B840BBA0BEE1F88F7E09508950E9491
:100D5000AE066894B1110C94890708950E946E073D
:100D600088F09F5798F0B92F9927B751B0F0E1F06C
:100D7000660F771F881F991F1AF0BA95C9F714C01C
:100D8000B13091F00E948807B1E008950C94880773
:100D9000672F782F8827B85F39F0B93FCCF3869555
:100DA00077956795B395D9F73EF4909580957095B2
:100DB00061957F4F8F4F9F4F0895E89409C097FB2F
:100DC0003EF490958095709561957F4F8F4F9F4F22
:100DD0009923A9F0F92F96E9BB279395F695879566
:100DE00077956795B795F111F8CFFAF4BB0F11F429
:100DF00060FF1BC06F5F7F4F8F4F9F4F16C08823D0
:100E000011F096E911C0772321F09EE8872F762F05
:100E100005C0662371F096E8862F70E060E02AF046
:100E20009A95660F771F881FDAF7880F9695879532
:100E300097F90895990F0008550FAA0BE0E8FEEF07
:100E400016161706E807F907C0F012161306E4078E
:100E5000F50798F0621B730B840B950B39F40A2687
:100E600061F0232B242B252B21F408950A2609F465
:100E7000A140A6958FEF811D811D089597F99F6769
:100E800080E870E060E008959FEF80EC0895002412
:100E90000A941616170618060906089500240A94DF
:100EA00012161306140605060895092E0394000C65
:100EB00011F4882352F0BB0F40F4BF2B11F460FFF4
:100EC00004C06F5F7F4F8F4F9F4F089557FD90581D
:100ED000440F551F59F05F3F71F04795880F97FBFE
:100EE000991F61F09F3F79F08795089512161306B8
:100EF0001406551FF2CF4695F1DF08C016161706E7
:100F00001806991FF1CF869571056105089408951B
:100F1000E894BB2766277727CB0197F908950E94AD
:100F20001A0708F48FEF08950E94A7070C9455073D
:100F30000E94470738F00E944E0720F0952311F0D9
:100F40000C943E070C94440711240C9489070E94CA
:100F5000660770F3959FC1F3950F50E0551F629F90
:100F6000F001729FBB27F00DB11D639FAA27F00D02
:100F7000B11DAA1F649F6627B00DA11D661F829F29
:100F80002227B00DA11D621F739FB00DA11D621F0E
:100F9000839FA00D611D221F749F3327A00D611D2B
:100FA000231F849F600D211D822F762F6A2F11240D
:100FB0009F5750409AF0F1F088234AF0EE0FFF1F40
:100FC000BB1F661F771F881F91505040A9F79E3F97
:100FD000510580F00C943E070C9489075F3FE4F3C1
:100FE000983ED4F3869577956795B795F795E795ED
:100FF0009F5FC1F7FE2B880F911D9695879597F9F6
:1010000008950E941A07880B990B0895A1E21A2EE1
:10101000AA1BBB1BFD010DC0AA1FBB1FEE1FFF1F9C
:10102000A217B307E407F50720F0A21BB30BE40BEC
:10103000F50B661F771F881F991F1A9469F7609533
:101040007095809590959B01AC01BD01CF010895ED
:10105000EE0FFF1F0590F491E02D0994F894FFCF57
:101060000000000033038C008E018D016E616E0064
:10107000696E66006F76660050414E4B414A2053C0
:10108000494E47480031393042544343534530328A
:0E109000340064697374616E6365203D000076
:107E0000112484B714BE81FFF0D085E080938100F7
:107E100082E08093C00088E18093C10086E0809377
:107E2000C20080E18093C4008EE0C9D0259A86E02C
:107E300020E33CEF91E0309385002093840096BBD3
:107E4000B09BFECF1D9AA8958150A9F7CC24DD24C4
:107E500088248394B5E0AB2EA1E19A2EF3E0BF2EE7
:107E6000A2D0813461F49FD0082FAFD0023811F036
:107E7000013811F484E001C083E08DD089C08234E0
:107E800011F484E103C0853419F485E0A6D080C0E4
:107E9000853579F488D0E82EFF2485D0082F10E0AE
:107EA000102F00270E291F29000F111F8ED06801E7
:107EB0006FC0863521F484E090D080E0DECF843638
:107EC00009F040C070D06FD0082F6DD080E0C81688
:107ED00080E7D80618F4F601B7BEE895C0E0D1E017
:107EE00062D089930C17E1F7F0E0CF16F0E7DF06D8
:107EF00018F0F601B7BEE89568D007B600FCFDCFD4
:107F0000A601A0E0B1E02C9130E011968C91119780
:107F100090E0982F8827822B932B1296FA010C0160
:107F200087BEE89511244E5F5F4FF1E0A038BF0790
:107F300051F7F601A7BEE89507B600FCFDCF97BE46
:107F4000E89526C08437B1F42ED02DD0F82E2BD052
:107F50003CD0F601EF2C8F010F5F1F4F84911BD097
:107F6000EA94F801C1F70894C11CD11CFA94CF0C13
:107F7000D11C0EC0853739F428D08EE10CD085E9AC
:107F80000AD08FE07ACF813511F488E018D01DD067
:107F900080E101D065CF982F8091C00085FFFCCF94
:107FA0009093C60008958091C00087FFFCCF809118
:107FB000C00084FD01C0A8958091C6000895E0E648
:107FC000F0E098E1908380830895EDDF803219F02E
:107FD00088E0F5DFFFCF84E1DECF1F93182FE3DFCA
:107FE0001150E9F7F2DF1F91089580E0E8DFEE27F6
:047FF000FF270994CA
:027FFE00040479
:00000001FF
