:100000000C945D000C9485000C9485000C94850084
:100010000C9485000C9485000C9485000C9485004C
:100020000C9485000C9485000C9485000C9485003C
:100030000C9485000C9485000C9485000C9485002C
:100040000C94BE020C9485000C9485000C948500E1
:100050000C9485000C9485000C9485000C9485000C
:100060000C9485000C94850000000008000201003B
:100070000003040700000000000000000000000072
:10008000250028002B0000000000240027002A0083
:10009000040404040404040402020202020203032E
:1000A0000303030301020408102040800102040836
:1000B00010200102040810209A0311241FBECFEF64
:1000C000D8E0DEBFCDBF11E0A0E0B1E0E0E8F7E0AE
:1000D00002C005900D92A032B107D9F721E0A0E24D
:1000E000B1E001C01D92A134B207E1F710E0CDE507
:1000F000D0E004C02197FE010E94B803CC35D1079F
:10010000C9F70E9408030C94BE030C94000090E011
:10011000FC01EC55FF4F249180579F4FFC018491C7
:10012000882399F090E0880F991FFC01EA57FF4F50
:10013000A591B491FC01E458FF4F859194918FB73C
:10014000F894EC91E22BEC938FBF0895AF92BF929D
:10015000CF92DF92EF92FF920F931F93CF93DF9393
:100160006C017B018B01040F151FEB015E01AE18C2
:10017000BF08C017D10759F06991D601ED91FC91E4
:100180000190F081E02DC6010995892B79F7C50111
:10019000DF91CF911F910F91FF90EF90DF90CF9063
:1001A000BF90AF90089590E0FC01E859FF4F249173
:1001B000FC01EC55FF4F3491FC01E057FF4FE491F7
:1001C000EE23C9F0222339F0233001F1A8F42130C5
:1001D00019F1223029F1F0E0EE0FFF1FE458FF4F34
:1001E000A591B4918FB7F894EC91611126C0309528
:1001F0003E233C938FBF08952730A9F02830C9F0E3
:10020000243049F7809180008F7D03C08091800069
:100210008F7780938000DFCF84B58F7784BDDBCF6D
:1002200084B58F7DFBCF8091B0008F778093B00035
:10023000D2CF8091B0008F7DF9CF3E2BDACF3FB780
:10024000F8948091250190912601A0912701B09109
:10025000280126B5A89B05C02F3F19F00196A11DC6
:10026000B11D3FBFBA2FA92F982F8827BC01CD0100
:10027000620F711D811D911D42E0660F771F881F5F
:10028000991F4A95D1F708958F929F92AF92BF928E
:10029000CF92DF92EF92FF924B015C010E941F010F
:1002A0006B017C010E941F016C197D098E099F0959
:1002B000683E734081059105A8F321E0821A9108F8
:1002C000A108B10888EEC80E83E0D81EE11CF11C1D
:1002D00081149104A104B10429F7FF90EF90DF90FD
:1002E000CF90BF90AF909F908F900895089590E029
:1002F00080E00895CF93DF93EC0160E08E810E944F
:10030000D30061E08E810E94D30060E08E810E9464
:10031000D3008BE891E00197F1F7DF91CF91089539
:10032000CF92DF92EF92FF920F931F93CF93DF93C1
:100330006C017C0187E0E80EF11CD0E0C0E0062FE4
:1003400010E0B8010C2E02C0759567950A94E2F78B
:100350006170F70181917F010E94D3002196C43022
:10036000D10579F7C601DF91CF911F910F91FF90D1
:10037000EF90DF90CF900C947A01CF92DF92EF92C2
:10038000FF920F931F93CF93DF93EC01F62E642F10
:100390008C810E94D3008D818F3F19F060E00E9414
:1003A000D3000F2D10E08F8584FF25C06E0187E0FC
:1003B000C80ED11CF12CE12CB8010E2C02C0759591
:1003C00067950A94E2F76170F60181916F010E94CE
:1003D000D300FFEFEF1AFF0A88E0E816F10461F797
:1003E000CE01DF91CF911F910F91FF90EF90DF90A1
:1003F000CF900C947A01B80184E0759567958A9541
:10040000E1F7CE010E9490016F2DCE01DF91CF91D7
:100410001F910F91FF90EF90DF90CF900C9490017F
:1004200040E0682F89E291E00C94BD01CF93DF9307
:10043000823029F49091380198609093380180932C
:100440003C0110923D0180E480933E0180E1809365
:100450003F0180E58093400180912D010E9487003B
:1004600080912E018F3F11F00E94870080912F0113
:100470000E948700C9E2D1E09E012952314080915B
:10048000380184FD0AC084E090E0219628173907DE
:100490003CF48E810E948700EFCF88E090E0F5CF9A
:1004A0008BE39DE00197F1F760E080912D010E94C0
:1004B000D30060E080912F010E94D30080912E0133
:1004C0008F3F19F060E00E94D3008091380184FDD5
:1004D00039C063E089E291E00E949001CBE4D6E468
:1004E000CE010197F1F763E089E291E00E9490016B
:1004F0002197F1F763E089E291E00E94900183E5A2
:1005000092E00197F1F762E089E291E00E949001A8
:100510008091380180620E94100284E0809339014A
:100520008CE00E94100281E00E9410028BE39FE1A8
:100530000197F1F782E080933A0186E0DF91CF9155
:100540000C94100280620E9410028BE496E40197E2
:10055000F1F78091380180620E94100283E592E0F9
:100560000197F1F78091380180620E941002D0CF8C
:1005700041E00E94BD0181E090E008951F920F923A
:100580000FB60F9211242F933F938F939F93AF93A6
:10059000BF938091210190912201A0912301B091FC
:1005A00024013091200123E0230F2D3758F50196C7
:1005B000A11DB11D20932001809321019093220160
:1005C000A0932301B09324018091250190912601ED
:1005D000A0912701B09128010196A11DB11D809322
:1005E000250190932601A0932701B0932801BF9184
:1005F000AF919F918F913F912F910F900FBE0F90D0
:100600001F90189526E8230F0296A11DB11DD2CF89
:10061000789484B5826084BD84B5816084BD85B5DD
:10062000826085BD85B5816085BD80916E008160E9
:1006300080936E001092810080918100826080938F
:100640008100809181008160809381008091800091
:100650008160809380008091B10084608093B100BC
:100660008091B00081608093B00080917A008460B6
:1006700080937A0080917A00826080937A008091E2
:100680007A00816080937A0080917A0080688093FC
:100690007A001092C10082E00E94160281E00E945E
:1006A00010028BE39FE10197F1F76AE070E080E0D0
:1006B00090E00E944401C0E0D0E0E1E080913C0184
:1006C0008111E0E0E195F0E0E75DFE4F848980680C
:1006D0000E94100246E050E06CE071E089E291E097
:1006E0000E94A60062E370E080E090E00E94440176
:1006F000E0913C01E230E0F4E150F0E0E75DFE4FD4
:1007000084898C5F80680E9410024BE050E063E1B6
:1007100071E089E291E00E94A60062E370E080E06F
:1007200090E00E944401209741F20E940000C5CF52
:10073000E1E0E3CFE9E2F1E01382128284E091E0AC
:10074000918380838DE084838FEF85838CE0868323
:1007500088E0878389E080878AE081878BE08287D1
:100760001386148615861686178681E00C94160269
:10077000EE0FFF1F0590F491E02D0994F894FFCF40
:1007800000000000B802A6007701760168656C6C75
:100790006F7700486F772061726520796F75000070
:00000001FF
